{
  "contractName": "NFT",
  "abi": [
    {
      "inputs": [],
      "stateMutability": "nonpayable",
      "type": "constructor"
    },
    {
      "anonymous": false,
      "inputs": [
        {
          "indexed": true,
          "internalType": "address",
          "name": "owner",
          "type": "address"
        },
        {
          "indexed": true,
          "internalType": "address",
          "name": "approved",
          "type": "address"
        },
        {
          "indexed": true,
          "internalType": "uint256",
          "name": "tokenId",
          "type": "uint256"
        }
      ],
      "name": "Approval",
      "type": "event"
    },
    {
      "anonymous": false,
      "inputs": [
        {
          "indexed": true,
          "internalType": "address",
          "name": "owner",
          "type": "address"
        },
        {
          "indexed": true,
          "internalType": "address",
          "name": "operator",
          "type": "address"
        },
        {
          "indexed": false,
          "internalType": "bool",
          "name": "approved",
          "type": "bool"
        }
      ],
      "name": "ApprovalForAll",
      "type": "event"
    },
    {
      "anonymous": false,
      "inputs": [
        {
          "indexed": false,
          "internalType": "uint256",
          "name": "_fromTokenId",
          "type": "uint256"
        },
        {
          "indexed": false,
          "internalType": "uint256",
          "name": "_toTokenId",
          "type": "uint256"
        }
      ],
      "name": "BatchMetadataUpdate",
      "type": "event"
    },
    {
      "anonymous": false,
      "inputs": [
        {
          "indexed": false,
          "internalType": "uint256",
          "name": "_tokenId",
          "type": "uint256"
        }
      ],
      "name": "MetadataUpdate",
      "type": "event"
    },
    {
      "anonymous": false,
      "inputs": [
        {
          "indexed": false,
          "internalType": "uint256",
          "name": "id",
          "type": "uint256"
        },
        {
          "indexed": false,
          "internalType": "uint256",
          "name": "age",
          "type": "uint256"
        },
        {
          "indexed": false,
          "internalType": "string",
          "name": "name",
          "type": "string"
        },
        {
          "indexed": false,
          "internalType": "string",
          "name": "surname",
          "type": "string"
        },
        {
          "indexed": false,
          "internalType": "uint256",
          "name": "height",
          "type": "uint256"
        },
        {
          "indexed": false,
          "internalType": "string",
          "name": "eyeColor",
          "type": "string"
        },
        {
          "indexed": false,
          "internalType": "string",
          "name": "religion",
          "type": "string"
        },
        {
          "indexed": false,
          "internalType": "string",
          "name": "location",
          "type": "string"
        },
        {
          "indexed": false,
          "internalType": "string",
          "name": "eId",
          "type": "string"
        },
        {
          "indexed": false,
          "internalType": "string",
          "name": "uri",
          "type": "string"
        }
      ],
      "name": "NFTCreated",
      "type": "event"
    },
    {
      "anonymous": false,
      "inputs": [
        {
          "indexed": true,
          "internalType": "address",
          "name": "from",
          "type": "address"
        },
        {
          "indexed": true,
          "internalType": "address",
          "name": "to",
          "type": "address"
        },
        {
          "indexed": true,
          "internalType": "uint256",
          "name": "tokenId",
          "type": "uint256"
        }
      ],
      "name": "Transfer",
      "type": "event"
    },
    {
      "inputs": [
        {
          "internalType": "address",
          "name": "to",
          "type": "address"
        },
        {
          "internalType": "uint256",
          "name": "tokenId",
          "type": "uint256"
        }
      ],
      "name": "approve",
      "outputs": [],
      "stateMutability": "nonpayable",
      "type": "function"
    },
    {
      "inputs": [
        {
          "internalType": "address",
          "name": "owner",
          "type": "address"
        }
      ],
      "name": "balanceOf",
      "outputs": [
        {
          "internalType": "uint256",
          "name": "",
          "type": "uint256"
        }
      ],
      "stateMutability": "view",
      "type": "function"
    },
    {
      "inputs": [
        {
          "internalType": "uint256",
          "name": "tokenId",
          "type": "uint256"
        }
      ],
      "name": "getApproved",
      "outputs": [
        {
          "internalType": "address",
          "name": "",
          "type": "address"
        }
      ],
      "stateMutability": "view",
      "type": "function"
    },
    {
      "inputs": [
        {
          "internalType": "address",
          "name": "owner",
          "type": "address"
        },
        {
          "internalType": "address",
          "name": "operator",
          "type": "address"
        }
      ],
      "name": "isApprovedForAll",
      "outputs": [
        {
          "internalType": "bool",
          "name": "",
          "type": "bool"
        }
      ],
      "stateMutability": "view",
      "type": "function"
    },
    {
      "inputs": [],
      "name": "name",
      "outputs": [
        {
          "internalType": "string",
          "name": "",
          "type": "string"
        }
      ],
      "stateMutability": "view",
      "type": "function"
    },
    {
      "inputs": [
        {
          "internalType": "uint256",
          "name": "tokenId",
          "type": "uint256"
        }
      ],
      "name": "ownerOf",
      "outputs": [
        {
          "internalType": "address",
          "name": "",
          "type": "address"
        }
      ],
      "stateMutability": "view",
      "type": "function"
    },
    {
      "inputs": [
        {
          "internalType": "address",
          "name": "from",
          "type": "address"
        },
        {
          "internalType": "address",
          "name": "to",
          "type": "address"
        },
        {
          "internalType": "uint256",
          "name": "tokenId",
          "type": "uint256"
        }
      ],
      "name": "safeTransferFrom",
      "outputs": [],
      "stateMutability": "nonpayable",
      "type": "function"
    },
    {
      "inputs": [
        {
          "internalType": "address",
          "name": "from",
          "type": "address"
        },
        {
          "internalType": "address",
          "name": "to",
          "type": "address"
        },
        {
          "internalType": "uint256",
          "name": "tokenId",
          "type": "uint256"
        },
        {
          "internalType": "bytes",
          "name": "data",
          "type": "bytes"
        }
      ],
      "name": "safeTransferFrom",
      "outputs": [],
      "stateMutability": "nonpayable",
      "type": "function"
    },
    {
      "inputs": [
        {
          "internalType": "address",
          "name": "operator",
          "type": "address"
        },
        {
          "internalType": "bool",
          "name": "approved",
          "type": "bool"
        }
      ],
      "name": "setApprovalForAll",
      "outputs": [],
      "stateMutability": "nonpayable",
      "type": "function"
    },
    {
      "inputs": [
        {
          "internalType": "bytes4",
          "name": "interfaceId",
          "type": "bytes4"
        }
      ],
      "name": "supportsInterface",
      "outputs": [
        {
          "internalType": "bool",
          "name": "",
          "type": "bool"
        }
      ],
      "stateMutability": "view",
      "type": "function"
    },
    {
      "inputs": [],
      "name": "symbol",
      "outputs": [
        {
          "internalType": "string",
          "name": "",
          "type": "string"
        }
      ],
      "stateMutability": "view",
      "type": "function"
    },
    {
      "inputs": [
        {
          "internalType": "uint256",
          "name": "tokenId",
          "type": "uint256"
        }
      ],
      "name": "tokenURI",
      "outputs": [
        {
          "internalType": "string",
          "name": "",
          "type": "string"
        }
      ],
      "stateMutability": "view",
      "type": "function"
    },
    {
      "inputs": [
        {
          "internalType": "address",
          "name": "from",
          "type": "address"
        },
        {
          "internalType": "address",
          "name": "to",
          "type": "address"
        },
        {
          "internalType": "uint256",
          "name": "tokenId",
          "type": "uint256"
        }
      ],
      "name": "transferFrom",
      "outputs": [],
      "stateMutability": "nonpayable",
      "type": "function"
    },
    {
      "inputs": [
        {
          "internalType": "uint256",
          "name": "_age",
          "type": "uint256"
        },
        {
          "internalType": "string",
          "name": "_name",
          "type": "string"
        },
        {
          "internalType": "string",
          "name": "_surname",
          "type": "string"
        },
        {
          "internalType": "uint256",
          "name": "_height",
          "type": "uint256"
        },
        {
          "internalType": "string",
          "name": "_eyeColor",
          "type": "string"
        },
        {
          "internalType": "string",
          "name": "_religion",
          "type": "string"
        },
        {
          "internalType": "string",
          "name": "_location",
          "type": "string"
        },
        {
          "internalType": "string",
          "name": "_eId",
          "type": "string"
        },
        {
          "internalType": "string",
          "name": "_uri",
          "type": "string"
        }
      ],
      "name": "createNFT",
      "outputs": [],
      "stateMutability": "nonpayable",
      "type": "function"
    },
    {
      "inputs": [
        {
          "internalType": "string",
          "name": "_searchField",
          "type": "string"
        }
      ],
      "name": "getNFTInfo",
      "outputs": [
        {
          "internalType": "uint256",
          "name": "",
          "type": "uint256"
        },
        {
          "internalType": "uint256",
          "name": "",
          "type": "uint256"
        },
        {
          "internalType": "string",
          "name": "",
          "type": "string"
        },
        {
          "internalType": "string",
          "name": "",
          "type": "string"
        },
        {
          "internalType": "uint256",
          "name": "",
          "type": "uint256"
        },
        {
          "internalType": "string",
          "name": "",
          "type": "string"
        },
        {
          "internalType": "string",
          "name": "",
          "type": "string"
        },
        {
          "internalType": "string",
          "name": "",
          "type": "string"
        },
        {
          "internalType": "string",
          "name": "",
          "type": "string"
        },
        {
          "internalType": "string",
          "name": "",
          "type": "string"
        }
      ],
      "stateMutability": "view",
      "type": "function"
    }
  ],
  "bytecode": "0x60806040523480156200001157600080fd5b506040518060400160405280600381526020017f4e465400000000000000000000000000000000000000000000000000000000008152506040518060400160405280600381526020017f4e46540000000000000000000000000000000000000000000000000000000000815250816000908051906020019062000096929190620000b8565b508060019080519060200190620000af929190620000b8565b505050620001cd565b828054620000c69062000168565b90600052602060002090601f016020900481019282620000ea576000855562000136565b82601f106200010557805160ff191683800117855562000136565b8280016001018555821562000136579182015b828111156200013557825182559160200191906001019062000118565b5b50905062000145919062000149565b5090565b5b80821115620001645760008160009055506001016200014a565b5090565b600060028204905060018216806200018157607f821691505b602082108114156200019857620001976200019e565b5b50919050565b7f4e487b7100000000000000000000000000000000000000000000000000000000600052602260045260246000fd5b613c2480620001dd6000396000f3fe608060405234801561001057600080fd5b50600436106100f55760003560e01c80636352211e11610097578063a22cb46511610066578063a22cb4651461029f578063b88d4fde146102bb578063c87b56dd146102d7578063e985e9c514610307576100f5565b80636352211e1461020557806370a082311461023557806376b53d5c1461026557806395d89b4114610281576100f5565b8063095ea7b3116100d3578063095ea7b31461017857806323b872dd14610194578063252941cd146101b057806342842e0e146101e9576100f5565b806301ffc9a7146100fa57806306fdde031461012a578063081812fc14610148575b600080fd5b610114600480360381019061010f9190612b99565b610337565b60405161012191906131d8565b60405180910390f35b610132610398565b60405161013f91906131f3565b60405180910390f35b610162600480360381019061015d9190612c2c565b61042a565b60405161016f9190613171565b60405180910390f35b610192600480360381019061018d9190612b5d565b610470565b005b6101ae60048036038101906101a99190612a57565b610588565b005b6101ca60048036038101906101c59190612beb565b6105e8565b6040516101e09a99989796959493929190613410565b60405180910390f35b61020360048036038101906101fe9190612a57565b611040565b005b61021f600480360381019061021a9190612c2c565b611060565b60405161022c9190613171565b60405180910390f35b61024f600480360381019061024a91906129f2565b6110e7565b60405161025c91906133f5565b60405180910390f35b61027f600480360381019061027a9190612c55565b61119f565b005b6102896114ce565b60405161029691906131f3565b60405180910390f35b6102b960048036038101906102b49190612b21565b611560565b005b6102d560048036038101906102d09190612aa6565b611576565b005b6102f160048036038101906102ec9190612c2c565b6115d8565b6040516102fe91906131f3565b60405180910390f35b610321600480360381019061031c9190612a1b565b6116eb565b60405161032e91906131d8565b60405180910390f35b6000634906490660e01b7bffffffffffffffffffffffffffffffffffffffffffffffffffffffff1916827bffffffffffffffffffffffffffffffffffffffffffffffffffffffff1916148061039157506103908261177f565b5b9050919050565b6060600080546103a7906136b1565b80601f01602080910402602001604051908101604052809291908181526020018280546103d3906136b1565b80156104205780601f106103f557610100808354040283529160200191610420565b820191906000526020600020905b81548152906001019060200180831161040357829003601f168201915b5050505050905090565b600061043582611861565b6004600083815260200190815260200160002060009054906101000a900473ffffffffffffffffffffffffffffffffffffffff169050919050565b600061047b82611060565b90508073ffffffffffffffffffffffffffffffffffffffff168373ffffffffffffffffffffffffffffffffffffffff1614156104ec576040517f08c379a00000000000000000000000000000000000000000000000000000000081526004016104e3906133b5565b60405180910390fd5b8073ffffffffffffffffffffffffffffffffffffffff1661050b6118ac565b73ffffffffffffffffffffffffffffffffffffffff16148061053a5750610539816105346118ac565b6116eb565b5b610579576040517f08c379a0000000000000000000000000000000000000000000000000000000008152600401610570906133d5565b60405180910390fd5b61058383836118b4565b505050565b6105996105936118ac565b8261196d565b6105d8576040517f08c379a00000000000000000000000000000000000000000000000000000000081526004016105cf90613215565b60405180910390fd5b6105e3838383611a02565b505050565b6000806060806000606080606080606060008b511115610ff85760098b6040516106129190613136565b908152602001604051809103902060009054906101000a900460ff1615610afe5760005b600780549050811015610af8578b8051906020012060078281548110610685577f4e487b7100000000000000000000000000000000000000000000000000000000600052603260045260246000fd5b90600052602060002090600902016008016040516106a3919061311f565b60405180910390201415610ae5576000600782815481106106ed577f4e487b7100000000000000000000000000000000000000000000000000000000600052603260045260246000fd5b906000526020600020906009020160405180610120016040529081600082015481526020016001820154815260200160028201805461072b906136b1565b80601f0160208091040260200160405190810160405280929190818152602001828054610757906136b1565b80156107a45780601f10610779576101008083540402835291602001916107a4565b820191906000526020600020905b81548152906001019060200180831161078757829003601f168201915b505050505081526020016003820180546107bd906136b1565b80601f01602080910402602001604051908101604052809291908181526020018280546107e9906136b1565b80156108365780601f1061080b57610100808354040283529160200191610836565b820191906000526020600020905b81548152906001019060200180831161081957829003601f168201915b5050505050815260200160048201548152602001600582018054610859906136b1565b80601f0160208091040260200160405190810160405280929190818152602001828054610885906136b1565b80156108d25780601f106108a7576101008083540402835291602001916108d2565b820191906000526020600020905b8154815290600101906020018083116108b557829003601f168201915b505050505081526020016006820180546108eb906136b1565b80601f0160208091040260200160405190810160405280929190818152602001828054610917906136b1565b80156109645780601f1061093957610100808354040283529160200191610964565b820191906000526020600020905b81548152906001019060200180831161094757829003601f168201915b5050505050815260200160078201805461097d906136b1565b80601f01602080910402602001604051908101604052809291908181526020018280546109a9906136b1565b80156109f65780601f106109cb576101008083540402835291602001916109f6565b820191906000526020600020905b8154815290600101906020018083116109d957829003601f168201915b50505050508152602001600882018054610a0f906136b1565b80601f0160208091040260200160405190810160405280929190818152602001828054610a3b906136b1565b8015610a885780601f10610a5d57610100808354040283529160200191610a88565b820191906000526020600020905b815481529060010190602001808311610a6b57829003601f168201915b5050505050815250509050806000015181602001518260400151836060015184608001518560a001518660c001518760e00151886101000151610aca8b6115d8565b9b509b509b509b509b509b509b509b509b509b505050611033565b8080610af090613714565b915050610636565b50610ff7565b60088b604051610b0e9190613136565b908152602001604051809103902060009054906101000a900460ff1615610ff65760005b600780549050811015610ff4578b8051906020012060078281548110610b81577f4e487b7100000000000000000000000000000000000000000000000000000000600052603260045260246000fd5b9060005260206000209060090201600201604051610b9f919061311f565b60405180910390201415610fe157600060078281548110610be9577f4e487b7100000000000000000000000000000000000000000000000000000000600052603260045260246000fd5b9060005260206000209060090201604051806101200160405290816000820154815260200160018201548152602001600282018054610c27906136b1565b80601f0160208091040260200160405190810160405280929190818152602001828054610c53906136b1565b8015610ca05780601f10610c7557610100808354040283529160200191610ca0565b820191906000526020600020905b815481529060010190602001808311610c8357829003601f168201915b50505050508152602001600382018054610cb9906136b1565b80601f0160208091040260200160405190810160405280929190818152602001828054610ce5906136b1565b8015610d325780601f10610d0757610100808354040283529160200191610d32565b820191906000526020600020905b815481529060010190602001808311610d1557829003601f168201915b5050505050815260200160048201548152602001600582018054610d55906136b1565b80601f0160208091040260200160405190810160405280929190818152602001828054610d81906136b1565b8015610dce5780601f10610da357610100808354040283529160200191610dce565b820191906000526020600020905b815481529060010190602001808311610db157829003601f168201915b50505050508152602001600682018054610de7906136b1565b80601f0160208091040260200160405190810160405280929190818152602001828054610e13906136b1565b8015610e605780601f10610e3557610100808354040283529160200191610e60565b820191906000526020600020905b815481529060010190602001808311610e4357829003601f168201915b50505050508152602001600782018054610e79906136b1565b80601f0160208091040260200160405190810160405280929190818152602001828054610ea5906136b1565b8015610ef25780601f10610ec757610100808354040283529160200191610ef2565b820191906000526020600020905b815481529060010190602001808311610ed557829003601f168201915b50505050508152602001600882018054610f0b906136b1565b80601f0160208091040260200160405190810160405280929190818152602001828054610f37906136b1565b8015610f845780601f10610f5957610100808354040283529160200191610f84565b820191906000526020600020905b815481529060010190602001808311610f6757829003601f168201915b5050505050815250509050806000015181602001518260400151836060015184608001518560a001518660c001518760e00151886101000151610fc68b6115d8565b9b509b509b509b509b509b509b509b509b509b505050611033565b8080610fec90613714565b915050610b32565b505b5b5b6040517f08c379a000000000000000000000000000000000000000000000000000000000815260040161102a906132d5565b60405180910390fd5b9193959799509193959799565b61105b83838360405180602001604052806000815250611576565b505050565b60008061106c83611cfc565b9050600073ffffffffffffffffffffffffffffffffffffffff168173ffffffffffffffffffffffffffffffffffffffff1614156110de576040517f08c379a00000000000000000000000000000000000000000000000000000000081526004016110d590613395565b60405180910390fd5b80915050919050565b60008073ffffffffffffffffffffffffffffffffffffffff168273ffffffffffffffffffffffffffffffffffffffff161415611158576040517f08c379a000000000000000000000000000000000000000000000000000000000815260040161114f906132f5565b60405180910390fd5b600360008373ffffffffffffffffffffffffffffffffffffffff1673ffffffffffffffffffffffffffffffffffffffff168152602001908152602001600020549050919050565b6008886040516111af9190613136565b908152602001604051809103902060009054906101000a900460ff161561120b576040517f08c379a000000000000000000000000000000000000000000000000000000000815260040161120290613375565b60405180910390fd5b60098260405161121b9190613136565b908152602001604051809103902060009054906101000a900460ff1615611277576040517f08c379a000000000000000000000000000000000000000000000000000000000815260040161126e90613315565b60405180910390fd5b600060405180610120016040528060078054905081526020018b81526020018a815260200189815260200188815260200187815260200186815260200185815260200184815250905060078190806001815401808255809150506001900390600052602060002090600902016000909190919091506000820151816000015560208201518160010155604082015181600201908051906020019061131c929190612816565b506060820151816003019080519060200190611339929190612816565b506080820151816004015560a0820151816005019080519060200190611360929190612816565b5060c082015181600601908051906020019061137d929190612816565b5060e082015181600701908051906020019061139a929190612816565b506101008201518160080190805190602001906113b8929190612816565b505050600160088a6040516113cd9190613136565b908152602001604051809103902060006101000a81548160ff02191690831515021790555060016009846040516114049190613136565b908152602001604051809103902060006101000a81548160ff0219169083151502179055506000600160078054905061143d91906135c7565b90506114493382611d39565b6114538184611f57565b7fe648f5be3e1edc1f37b0912c57f49fd7118f8638a7d9b549dcb4f958e58bd986826000015183602001518460400151856060015186608001518760a001518860c001518960e001518a61010001518c6040516114b99a99989796959493929190613410565b60405180910390a15050505050505050505050565b6060600180546114dd906136b1565b80601f0160208091040260200160405190810160405280929190818152602001828054611509906136b1565b80156115565780601f1061152b57610100808354040283529160200191611556565b820191906000526020600020905b81548152906001019060200180831161153957829003601f168201915b5050505050905090565b61157261156b6118ac565b8383612002565b5050565b6115876115816118ac565b8361196d565b6115c6576040517f08c379a00000000000000000000000000000000000000000000000000000000081526004016115bd90613215565b60405180910390fd5b6115d28484848461216f565b50505050565b60606115e382611861565b6000600660008481526020019081526020016000208054611603906136b1565b80601f016020809104026020016040519081016040528092919081815260200182805461162f906136b1565b801561167c5780601f106116515761010080835404028352916020019161167c565b820191906000526020600020905b81548152906001019060200180831161165f57829003601f168201915b50505050509050600061168d6121cb565b90506000815114156116a35781925050506116e6565b6000825111156116d85780826040516020016116c092919061314d565b604051602081830303815290604052925050506116e6565b6116e1846121e2565b925050505b919050565b6000600560008473ffffffffffffffffffffffffffffffffffffffff1673ffffffffffffffffffffffffffffffffffffffff16815260200190815260200160002060008373ffffffffffffffffffffffffffffffffffffffff1673ffffffffffffffffffffffffffffffffffffffff16815260200190815260200160002060009054906101000a900460ff16905092915050565b60007f80ac58cd000000000000000000000000000000000000000000000000000000007bffffffffffffffffffffffffffffffffffffffffffffffffffffffff1916827bffffffffffffffffffffffffffffffffffffffffffffffffffffffff1916148061184a57507f5b5e139f000000000000000000000000000000000000000000000000000000007bffffffffffffffffffffffffffffffffffffffffffffffffffffffff1916827bffffffffffffffffffffffffffffffffffffffffffffffffffffffff1916145b8061185a57506118598261224a565b5b9050919050565b61186a816122b4565b6118a9576040517f08c379a00000000000000000000000000000000000000000000000000000000081526004016118a090613395565b60405180910390fd5b50565b600033905090565b816004600083815260200190815260200160002060006101000a81548173ffffffffffffffffffffffffffffffffffffffff021916908373ffffffffffffffffffffffffffffffffffffffff160217905550808273ffffffffffffffffffffffffffffffffffffffff1661192783611060565b73ffffffffffffffffffffffffffffffffffffffff167f8c5be1e5ebec7d5bd14f71427d1e84f3dd0314c0f7b2291e5b200ac8c7c3b92560405160405180910390a45050565b60008061197983611060565b90508073ffffffffffffffffffffffffffffffffffffffff168473ffffffffffffffffffffffffffffffffffffffff1614806119bb57506119ba81856116eb565b5b806119f957508373ffffffffffffffffffffffffffffffffffffffff166119e18461042a565b73ffffffffffffffffffffffffffffffffffffffff16145b91505092915050565b8273ffffffffffffffffffffffffffffffffffffffff16611a2282611060565b73ffffffffffffffffffffffffffffffffffffffff1614611a78576040517f08c379a0000000000000000000000000000000000000000000000000000000008152600401611a6f90613255565b60405180910390fd5b600073ffffffffffffffffffffffffffffffffffffffff168273ffffffffffffffffffffffffffffffffffffffff161415611ae8576040517f08c379a0000000000000000000000000000000000000000000000000000000008152600401611adf90613295565b60405180910390fd5b611af583838360016122f5565b8273ffffffffffffffffffffffffffffffffffffffff16611b1582611060565b73ffffffffffffffffffffffffffffffffffffffff1614611b6b576040517f08c379a0000000000000000000000000000000000000000000000000000000008152600401611b6290613255565b60405180910390fd5b6004600082815260200190815260200160002060006101000a81549073ffffffffffffffffffffffffffffffffffffffff02191690556001600360008573ffffffffffffffffffffffffffffffffffffffff1673ffffffffffffffffffffffffffffffffffffffff168152602001908152602001600020600082825403925050819055506001600360008473ffffffffffffffffffffffffffffffffffffffff1673ffffffffffffffffffffffffffffffffffffffff16815260200190815260200160002060008282540192505081905550816002600083815260200190815260200160002060006101000a81548173ffffffffffffffffffffffffffffffffffffffff021916908373ffffffffffffffffffffffffffffffffffffffff160217905550808273ffffffffffffffffffffffffffffffffffffffff168473ffffffffffffffffffffffffffffffffffffffff167fddf252ad1be2c89b69c2b068fc378daa952ba7f163c4a11628f55a4df523b3ef60405160405180910390a4611cf783838360016122fb565b505050565b60006002600083815260200190815260200160002060009054906101000a900473ffffffffffffffffffffffffffffffffffffffff169050919050565b600073ffffffffffffffffffffffffffffffffffffffff168273ffffffffffffffffffffffffffffffffffffffff161415611da9576040517f08c379a0000000000000000000000000000000000000000000000000000000008152600401611da090613355565b60405180910390fd5b611db2816122b4565b15611df2576040517f08c379a0000000000000000000000000000000000000000000000000000000008152600401611de990613275565b60405180910390fd5b611e006000838360016122f5565b611e09816122b4565b15611e49576040517f08c379a0000000000000000000000000000000000000000000000000000000008152600401611e4090613275565b60405180910390fd5b6001600360008473ffffffffffffffffffffffffffffffffffffffff1673ffffffffffffffffffffffffffffffffffffffff16815260200190815260200160002060008282540192505081905550816002600083815260200190815260200160002060006101000a81548173ffffffffffffffffffffffffffffffffffffffff021916908373ffffffffffffffffffffffffffffffffffffffff160217905550808273ffffffffffffffffffffffffffffffffffffffff16600073ffffffffffffffffffffffffffffffffffffffff167fddf252ad1be2c89b69c2b068fc378daa952ba7f163c4a11628f55a4df523b3ef60405160405180910390a4611f536000838360016122fb565b5050565b611f60826122b4565b611f9f576040517f08c379a0000000000000000000000000000000000000000000000000000000008152600401611f9690613335565b60405180910390fd5b80600660008481526020019081526020016000209080519060200190611fc6929190612816565b507ff8e1a15aba9398e019f0b49df1a4fde98ee17ae345cb5f6b5e2c27f5033e8ce782604051611ff691906133f5565b60405180910390a15050565b8173ffffffffffffffffffffffffffffffffffffffff168373ffffffffffffffffffffffffffffffffffffffff161415612071576040517f08c379a0000000000000000000000000000000000000000000000000000000008152600401612068906132b5565b60405180910390fd5b80600560008573ffffffffffffffffffffffffffffffffffffffff1673ffffffffffffffffffffffffffffffffffffffff16815260200190815260200160002060008473ffffffffffffffffffffffffffffffffffffffff1673ffffffffffffffffffffffffffffffffffffffff16815260200190815260200160002060006101000a81548160ff0219169083151502179055508173ffffffffffffffffffffffffffffffffffffffff168373ffffffffffffffffffffffffffffffffffffffff167f17307eab39ab6107e8899845ad3d59bd9653f200f220920489ca2b5937696c318360405161216291906131d8565b60405180910390a3505050565b61217a848484611a02565b61218684848484612301565b6121c5576040517f08c379a00000000000000000000000000000000000000000000000000000000081526004016121bc90613235565b60405180910390fd5b50505050565b606060405180602001604052806000815250905090565b60606121ed82611861565b60006121f76121cb565b905060008151116122175760405180602001604052806000815250612242565b8061222184612498565b60405160200161223292919061314d565b6040516020818303038152906040525b915050919050565b60007f01ffc9a7000000000000000000000000000000000000000000000000000000007bffffffffffffffffffffffffffffffffffffffffffffffffffffffff1916827bffffffffffffffffffffffffffffffffffffffffffffffffffffffff1916149050919050565b60008073ffffffffffffffffffffffffffffffffffffffff166122d683611cfc565b73ffffffffffffffffffffffffffffffffffffffff1614159050919050565b50505050565b50505050565b60006123228473ffffffffffffffffffffffffffffffffffffffff166125bc565b1561248b578373ffffffffffffffffffffffffffffffffffffffff1663150b7a0261234b6118ac565b8786866040518563ffffffff1660e01b815260040161236d949392919061318c565b602060405180830381600087803b15801561238757600080fd5b505af19250505080156123b857506040513d601f19601f820116820180604052508101906123b59190612bc2565b60015b61243b573d80600081146123e8576040519150601f19603f3d011682016040523d82523d6000602084013e6123ed565b606091505b50600081511415612433576040517f08c379a000000000000000000000000000000000000000000000000000000000815260040161242a90613235565b60405180910390fd5b805181602001fd5b63150b7a0260e01b7bffffffffffffffffffffffffffffffffffffffffffffffffffffffff1916817bffffffffffffffffffffffffffffffffffffffffffffffffffffffff191614915050612490565b600190505b949350505050565b6060600060016124a7846125df565b01905060008167ffffffffffffffff8111156124ec577f4e487b7100000000000000000000000000000000000000000000000000000000600052604160045260246000fd5b6040519080825280601f01601f19166020018201604052801561251e5781602001600182028036833780820191505090505b509050600082602001820190505b6001156125b1578080600190039150507f3031323334353637383961626364656600000000000000000000000000000000600a86061a8153600a858161259b577f4e487b7100000000000000000000000000000000000000000000000000000000600052601260045260246000fd5b04945060008514156125ac576125b1565b61252c565b819350505050919050565b6000808273ffffffffffffffffffffffffffffffffffffffff163b119050919050565b600080600090507a184f03e93ff9f4daa797ed6e38ed64bf6a1f0100000000000000008310612663577a184f03e93ff9f4daa797ed6e38ed64bf6a1f0100000000000000008381612659577f4e487b7100000000000000000000000000000000000000000000000000000000600052601260045260246000fd5b0492506040810190505b6d04ee2d6d415b85acef810000000083106126c6576d04ee2d6d415b85acef810000000083816126bc577f4e487b7100000000000000000000000000000000000000000000000000000000600052601260045260246000fd5b0492506020810190505b662386f26fc10000831061271b57662386f26fc100008381612711577f4e487b7100000000000000000000000000000000000000000000000000000000600052601260045260246000fd5b0492506010810190505b6305f5e100831061276a576305f5e1008381612760577f4e487b7100000000000000000000000000000000000000000000000000000000600052601260045260246000fd5b0492506008810190505b61271083106127b55761271083816127ab577f4e487b7100000000000000000000000000000000000000000000000000000000600052601260045260246000fd5b0492506004810190505b606483106127fe57606483816127f4577f4e487b7100000000000000000000000000000000000000000000000000000000600052601260045260246000fd5b0492506002810190505b600a831061280d576001810190505b80915050919050565b828054612822906136b1565b90600052602060002090601f016020900481019282612844576000855561288b565b82601f1061285d57805160ff191683800117855561288b565b8280016001018555821561288b579182015b8281111561288a57825182559160200191906001019061286f565b5b509050612898919061289c565b5090565b5b808211156128b557600081600090555060010161289d565b5090565b60006128cc6128c784613502565b6134dd565b9050828152602081018484840111156128e457600080fd5b6128ef84828561366f565b509392505050565b600061290a61290584613533565b6134dd565b90508281526020810184848401111561292257600080fd5b61292d84828561366f565b509392505050565b60008135905061294481613b92565b92915050565b60008135905061295981613ba9565b92915050565b60008135905061296e81613bc0565b92915050565b60008151905061298381613bc0565b92915050565b600082601f83011261299a57600080fd5b81356129aa8482602086016128b9565b91505092915050565b600082601f8301126129c457600080fd5b81356129d48482602086016128f7565b91505092915050565b6000813590506129ec81613bd7565b92915050565b600060208284031215612a0457600080fd5b6000612a1284828501612935565b91505092915050565b60008060408385031215612a2e57600080fd5b6000612a3c85828601612935565b9250506020612a4d85828601612935565b9150509250929050565b600080600060608486031215612a6c57600080fd5b6000612a7a86828701612935565b9350506020612a8b86828701612935565b9250506040612a9c868287016129dd565b9150509250925092565b60008060008060808587031215612abc57600080fd5b6000612aca87828801612935565b9450506020612adb87828801612935565b9350506040612aec878288016129dd565b925050606085013567ffffffffffffffff811115612b0957600080fd5b612b1587828801612989565b91505092959194509250565b60008060408385031215612b3457600080fd5b6000612b4285828601612935565b9250506020612b538582860161294a565b9150509250929050565b60008060408385031215612b7057600080fd5b6000612b7e85828601612935565b9250506020612b8f858286016129dd565b9150509250929050565b600060208284031215612bab57600080fd5b6000612bb98482850161295f565b91505092915050565b600060208284031215612bd457600080fd5b6000612be284828501612974565b91505092915050565b600060208284031215612bfd57600080fd5b600082013567ffffffffffffffff811115612c1757600080fd5b612c23848285016129b3565b91505092915050565b600060208284031215612c3e57600080fd5b6000612c4c848285016129dd565b91505092915050565b60008060008060008060008060006101208a8c031215612c7457600080fd5b6000612c828c828d016129dd565b99505060208a013567ffffffffffffffff811115612c9f57600080fd5b612cab8c828d016129b3565b98505060408a013567ffffffffffffffff811115612cc857600080fd5b612cd48c828d016129b3565b9750506060612ce58c828d016129dd565b96505060808a013567ffffffffffffffff811115612d0257600080fd5b612d0e8c828d016129b3565b95505060a08a013567ffffffffffffffff811115612d2b57600080fd5b612d378c828d016129b3565b94505060c08a013567ffffffffffffffff811115612d5457600080fd5b612d608c828d016129b3565b93505060e08a013567ffffffffffffffff811115612d7d57600080fd5b612d898c828d016129b3565b9250506101008a013567ffffffffffffffff811115612da757600080fd5b612db38c828d016129b3565b9150509295985092959850929598565b612dcc816135fb565b82525050565b612ddb8161360d565b82525050565b6000612dec82613579565b612df6818561358f565b9350612e0681856020860161367e565b612e0f816137ea565b840191505092915050565b60008154612e27816136b1565b612e3181866135a0565b94506001821660008114612e4c5760018114612e5d57612e90565b60ff19831686528186019350612e90565b612e6685613564565b60005b83811015612e8857815481890152600182019150602081019050612e69565b838801955050505b50505092915050565b6000612ea482613584565b612eae81856135ab565b9350612ebe81856020860161367e565b612ec7816137ea565b840191505092915050565b6000612edd82613584565b612ee781856135bc565b9350612ef781856020860161367e565b80840191505092915050565b6000612f10602d836135ab565b9150612f1b826137fb565b604082019050919050565b6000612f336032836135ab565b9150612f3e8261384a565b604082019050919050565b6000612f566025836135ab565b9150612f6182613899565b604082019050919050565b6000612f79601c836135ab565b9150612f84826138e8565b602082019050919050565b6000612f9c6024836135ab565b9150612fa782613911565b604082019050919050565b6000612fbf6019836135ab565b9150612fca82613960565b602082019050919050565b6000612fe26010836135ab565b9150612fed82613989565b602082019050919050565b60006130056029836135ab565b9150613010826139b2565b604082019050919050565b60006130286013836135ab565b915061303382613a01565b602082019050919050565b600061304b602e836135ab565b915061305682613a2a565b604082019050919050565b600061306e6020836135ab565b915061307982613a79565b602082019050919050565b60006130916015836135ab565b915061309c82613aa2565b602082019050919050565b60006130b46018836135ab565b91506130bf82613acb565b602082019050919050565b60006130d76021836135ab565b91506130e282613af4565b604082019050919050565b60006130fa603d836135ab565b915061310582613b43565b604082019050919050565b61311981613665565b82525050565b600061312b8284612e1a565b915081905092915050565b60006131428284612ed2565b915081905092915050565b60006131598285612ed2565b91506131658284612ed2565b91508190509392505050565b60006020820190506131866000830184612dc3565b92915050565b60006080820190506131a16000830187612dc3565b6131ae6020830186612dc3565b6131bb6040830185613110565b81810360608301526131cd8184612de1565b905095945050505050565b60006020820190506131ed6000830184612dd2565b92915050565b6000602082019050818103600083015261320d8184612e99565b905092915050565b6000602082019050818103600083015261322e81612f03565b9050919050565b6000602082019050818103600083015261324e81612f26565b9050919050565b6000602082019050818103600083015261326e81612f49565b9050919050565b6000602082019050818103600083015261328e81612f6c565b9050919050565b600060208201905081810360008301526132ae81612f8f565b9050919050565b600060208201905081810360008301526132ce81612fb2565b9050919050565b600060208201905081810360008301526132ee81612fd5565b9050919050565b6000602082019050818103600083015261330e81612ff8565b9050919050565b6000602082019050818103600083015261332e8161301b565b9050919050565b6000602082019050818103600083015261334e8161303e565b9050919050565b6000602082019050818103600083015261336e81613061565b9050919050565b6000602082019050818103600083015261338e81613084565b9050919050565b600060208201905081810360008301526133ae816130a7565b9050919050565b600060208201905081810360008301526133ce816130ca565b9050919050565b600060208201905081810360008301526133ee816130ed565b9050919050565b600060208201905061340a6000830184613110565b92915050565b600061014082019050613426600083018d613110565b613433602083018c613110565b8181036040830152613445818b612e99565b90508181036060830152613459818a612e99565b90506134686080830189613110565b81810360a083015261347a8188612e99565b905081810360c083015261348e8187612e99565b905081810360e08301526134a28186612e99565b90508181036101008301526134b78185612e99565b90508181036101208301526134cc8184612e99565b90509b9a5050505050505050505050565b60006134e76134f8565b90506134f382826136e3565b919050565b6000604051905090565b600067ffffffffffffffff82111561351d5761351c6137bb565b5b613526826137ea565b9050602081019050919050565b600067ffffffffffffffff82111561354e5761354d6137bb565b5b613557826137ea565b9050602081019050919050565b60008190508160005260206000209050919050565b600081519050919050565b600081519050919050565b600082825260208201905092915050565b600081905092915050565b600082825260208201905092915050565b600081905092915050565b60006135d282613665565b91506135dd83613665565b9250828210156135f0576135ef61375d565b5b828203905092915050565b600061360682613645565b9050919050565b60008115159050919050565b60007fffffffff0000000000000000000000000000000000000000000000000000000082169050919050565b600073ffffffffffffffffffffffffffffffffffffffff82169050919050565b6000819050919050565b82818337600083830152505050565b60005b8381101561369c578082015181840152602081019050613681565b838111156136ab576000848401525b50505050565b600060028204905060018216806136c957607f821691505b602082108114156136dd576136dc61378c565b5b50919050565b6136ec826137ea565b810181811067ffffffffffffffff8211171561370b5761370a6137bb565b5b80604052505050565b600061371f82613665565b91507fffffffffffffffffffffffffffffffffffffffffffffffffffffffffffffffff8214156137525761375161375d565b5b600182019050919050565b7f4e487b7100000000000000000000000000000000000000000000000000000000600052601160045260246000fd5b7f4e487b7100000000000000000000000000000000000000000000000000000000600052602260045260246000fd5b7f4e487b7100000000000000000000000000000000000000000000000000000000600052604160045260246000fd5b6000601f19601f8301169050919050565b7f4552433732313a2063616c6c6572206973206e6f7420746f6b656e206f776e6560008201527f72206f7220617070726f76656400000000000000000000000000000000000000602082015250565b7f4552433732313a207472616e7366657220746f206e6f6e20455243373231526560008201527f63656976657220696d706c656d656e7465720000000000000000000000000000602082015250565b7f4552433732313a207472616e736665722066726f6d20696e636f72726563742060008201527f6f776e6572000000000000000000000000000000000000000000000000000000602082015250565b7f4552433732313a20746f6b656e20616c7265616479206d696e74656400000000600082015250565b7f4552433732313a207472616e7366657220746f20746865207a65726f2061646460008201527f7265737300000000000000000000000000000000000000000000000000000000602082015250565b7f4552433732313a20617070726f766520746f2063616c6c657200000000000000600082015250565b7f506572736f6e206e6f7420666f756e6400000000000000000000000000000000600082015250565b7f4552433732313a2061646472657373207a65726f206973206e6f74206120766160008201527f6c6964206f776e65720000000000000000000000000000000000000000000000602082015250565b7f452d494420616c72656164792065786973747300000000000000000000000000600082015250565b7f45524337323155524953746f726167653a2055524920736574206f66206e6f6e60008201527f6578697374656e7420746f6b656e000000000000000000000000000000000000602082015250565b7f4552433732313a206d696e7420746f20746865207a65726f2061646472657373600082015250565b7f506572736f6e20616c7265616479206578697374730000000000000000000000600082015250565b7f4552433732313a20696e76616c696420746f6b656e2049440000000000000000600082015250565b7f4552433732313a20617070726f76616c20746f2063757272656e74206f776e6560008201527f7200000000000000000000000000000000000000000000000000000000000000602082015250565b7f4552433732313a20617070726f76652063616c6c6572206973206e6f7420746f60008201527f6b656e206f776e6572206f7220617070726f76656420666f7220616c6c000000602082015250565b613b9b816135fb565b8114613ba657600080fd5b50565b613bb28161360d565b8114613bbd57600080fd5b50565b613bc981613619565b8114613bd457600080fd5b50565b613be081613665565b8114613beb57600080fd5b5056fea26469706673582212208a97945202256e03b240ee493043f3c7cf839dae3f0bb497e4a0406d680d21d864736f6c63430008010033",
  "immutableReferences": {},
  "source": "// SPDX-License-Identifier: MIT\npragma solidity ^0.8.1;\n\nimport \"@openzeppelin/contracts/token/ERC721/extensions/ERC721URIStorage.sol\";\n\ncontract NFT is ERC721URIStorage {\n    struct Person {\n        uint256 id;\n        uint256 age;\n        string name;\n        string surname;\n        uint256 height;\n        string eyeColor;\n        string religion;\n        string location;\n        string eId;\n    }\n\n    Person[] private persons;\n    mapping(string => bool) private personExists;\n    mapping(string => bool) private eIdExists;\n\n    event NFTCreated(\n        uint256 id,\n        uint256 age,\n        string name,\n        string surname,\n        uint256 height,\n        string eyeColor,\n        string religion,\n        string location,\n        string eId,\n        string uri\n    );\n\n    constructor() ERC721(\"NFT\", \"NFT\") {}\n\n    function createNFT(\n        uint256 _age,\n        string memory _name,\n        string memory _surname,\n        uint256 _height,\n        string memory _eyeColor,\n        string memory _religion,\n        string memory _location,\n        string memory _eId,\n        string memory _uri\n    ) public {\n        require(!personExists[_name], \"Person already exists\");\n        require(!eIdExists[_eId], \"E-ID already exists\");\n\n        Person memory newPerson = Person({\n            id: persons.length,\n            age: _age,\n            name: _name,\n            surname: _surname,\n            height: _height,\n            eyeColor: _eyeColor,\n            religion: _religion,\n            location: _location,\n            eId: _eId\n        });\n\n        persons.push(newPerson);\n        personExists[_name] = true;\n        eIdExists[_eId] = true;\n\n        uint256 tokenId = persons.length - 1;\n        _mint(msg.sender, tokenId);\n        _setTokenURI(tokenId, _uri);\n\n        emit NFTCreated(\n            newPerson.id,\n            newPerson.age,\n            newPerson.name,\n            newPerson.surname,\n            newPerson.height,\n            newPerson.eyeColor,\n            newPerson.religion,\n            newPerson.location,\n            newPerson.eId,\n            _uri\n        );\n    }\n\n    function getNFTInfo(string memory _searchField)\n        public\n        view\n        returns (\n            uint256,\n            uint256,\n            string memory,\n            string memory,\n            uint256,\n            string memory,\n            string memory,\n            string memory,\n            string memory,\n            string memory\n        )\n    {\n        if (bytes(_searchField).length > 0) {\n            // Search by E-ID\n            if (eIdExists[_searchField]) {\n                for (uint256 i = 0; i < persons.length; i++) {\n                    if (\n                        keccak256(bytes(persons[i].eId)) ==\n                        keccak256(bytes(_searchField))\n                    ) {\n                        Person memory person = persons[i];\n                        return (\n                            person.id,\n                            person.age,\n                            person.name,\n                            person.surname,\n                            person.height,\n                            person.eyeColor,\n                            person.religion,\n                            person.location,\n                            person.eId,\n                            tokenURI(i)\n                        );\n                    }\n                }\n            }\n            // Search by Name\n            else if (personExists[_searchField]) {\n                for (uint256 i = 0; i < persons.length; i++) {\n                    if (\n                        keccak256(bytes(persons[i].name)) ==\n                        keccak256(bytes(_searchField))\n                    ) {\n                        Person memory person = persons[i];\n                        return (\n                            person.id,\n                            person.age,\n                            person.name,\n                            person.surname,\n                            person.height,\n                            person.eyeColor,\n                            person.religion,\n                            person.location,\n                            person.eId,\n                            tokenURI(i)\n                        );\n                    }\n                }\n            }\n        }\n        revert(\"Person not found\");\n    }\n}",
  "sourcePath": "/projects/BC_Group10/ether/contracts/NFT.sol",
  "compiler": {
    "name": "solc",
    "version": "0.8.1+commit.df193b15.Emscripten.clang"
  },
  "schemaVersion": "3.4.1",
  "updatedAt": "2023-06-28T08:23:06.180Z",
  "devdoc": {
    "kind": "dev",
    "methods": {
      "approve(address,uint256)": {
        "details": "See {IERC721-approve}."
      },
      "balanceOf(address)": {
        "details": "See {IERC721-balanceOf}."
      },
      "getApproved(uint256)": {
        "details": "See {IERC721-getApproved}."
      },
      "isApprovedForAll(address,address)": {
        "details": "See {IERC721-isApprovedForAll}."
      },
      "name()": {
        "details": "See {IERC721Metadata-name}."
      },
      "ownerOf(uint256)": {
        "details": "See {IERC721-ownerOf}."
      },
      "safeTransferFrom(address,address,uint256)": {
        "details": "See {IERC721-safeTransferFrom}."
      },
      "safeTransferFrom(address,address,uint256,bytes)": {
        "details": "See {IERC721-safeTransferFrom}."
      },
      "setApprovalForAll(address,bool)": {
        "details": "See {IERC721-setApprovalForAll}."
      },
      "supportsInterface(bytes4)": {
        "details": "See {IERC165-supportsInterface}"
      },
      "symbol()": {
        "details": "See {IERC721Metadata-symbol}."
      },
      "tokenURI(uint256)": {
        "details": "See {IERC721Metadata-tokenURI}."
      },
      "transferFrom(address,address,uint256)": {
        "details": "See {IERC721-transferFrom}."
      }
    },
    "version": 1
  },
  "userdoc": {
    "kind": "user",
    "methods": {},
    "version": 1
  }
}